{"abi":[{"type":"constructor","inputs":[{"name":"_QVname","type":"string","internalType":"string"},{"name":"_candidates","type":"string[]","internalType":"string[]"},{"name":"_overseer","type":"address","internalType":"address"},{"name":"_deadline","type":"uint256","internalType":"uint256"}],"stateMutability":"nonpayable"},{"type":"function","name":"QVended","inputs":[],"outputs":[{"name":"","type":"bool","internalType":"bool"}],"stateMutability":"view"},{"type":"function","name":"QVname","inputs":[],"outputs":[{"name":"","type":"string","internalType":"string"}],"stateMutability":"view"},{"type":"function","name":"candidateNames","inputs":[{"name":"","type":"uint256","internalType":"uint256"}],"outputs":[{"name":"","type":"string","internalType":"string"}],"stateMutability":"view"},{"type":"function","name":"candidateVotes","inputs":[{"name":"","type":"uint256","internalType":"uint256"}],"outputs":[{"name":"","type":"uint256","internalType":"uint256"}],"stateMutability":"view"},{"type":"function","name":"candidates","inputs":[],"outputs":[{"name":"","type":"uint256","internalType":"uint256"}],"stateMutability":"view"},{"type":"function","name":"deadline","inputs":[],"outputs":[{"name":"","type":"uint256","internalType":"uint256"}],"stateMutability":"view"},{"type":"function","name":"giveVoteAccess","inputs":[{"name":"addresses","type":"address[]","internalType":"address[]"}],"outputs":[{"name":"","type":"bool","internalType":"bool"}],"stateMutability":"nonpayable"},{"type":"function","name":"leadingCandidate","inputs":[],"outputs":[{"name":"","type":"uint256","internalType":"uint256"}],"stateMutability":"view"},{"type":"function","name":"overseer","inputs":[],"outputs":[{"name":"","type":"address","internalType":"address"}],"stateMutability":"view"},{"type":"function","name":"quadTotal","inputs":[],"outputs":[{"name":"","type":"uint256","internalType":"uint256"}],"stateMutability":"view"},{"type":"function","name":"quadcandyVotes","inputs":[{"name":"","type":"uint256","internalType":"uint256"}],"outputs":[{"name":"","type":"uint256","internalType":"uint256"}],"stateMutability":"view"},{"type":"function","name":"sqrtcandyVotes","inputs":[{"name":"","type":"uint256","internalType":"uint256"}],"outputs":[{"name":"","type":"uint256","internalType":"uint256"}],"stateMutability":"view"},{"type":"function","name":"vote","inputs":[{"name":"_votes","type":"uint256[]","internalType":"uint256[]"}],"outputs":[{"name":"","type":"bool","internalType":"bool"}],"stateMutability":"nonpayable"},{"type":"function","name":"voteStatus","inputs":[{"name":"","type":"address","internalType":"address"}],"outputs":[{"name":"","type":"uint8","internalType":"uint8"}],"stateMutability":"view"},{"type":"event","name":"VoteAccessGranted","inputs":[{"name":"overseer","type":"address","indexed":true,"internalType":"address"},{"name":"voter","type":"address","indexed":true,"internalType":"address"}],"anonymous":false},{"type":"event","name":"Voted","inputs":[{"name":"voter","type":"address","indexed":true,"internalType":"address"},{"name":"votes","type":"uint256[]","indexed":false,"internalType":"uint256[]"}],"anonymous":false}],"bytecode":{"object":"0x608060405234801561000f575f5ffd5b50604051611fb6380380611fb6833981810160405281019061003191906105b6565b815f5f6101000a81548173ffffffffffffffffffffffffffffffffffffffff021916908373ffffffffffffffffffffffffffffffffffffffff160217905550836001908161007f9190610859565b508251600881905550826006908051906020019061009e9291906101dd565b5060085467ffffffffffffffff8111156100bb576100ba610323565b5b6040519080825280602002602001820160405280156100e95781602001602082028036833780820191505090505b50600390805190602001906100ff929190610234565b5060085467ffffffffffffffff81111561011c5761011b610323565b5b60405190808252806020026020018201604052801561014a5781602001602082028036833780820191505090505b5060049080519060200190610160929190610234565b5060085467ffffffffffffffff81111561017d5761017c610323565b5b6040519080825280602002602001820160405280156101ab5781602001602082028036833780820191505090505b50600590805190602001906101c1929190610234565b5080426101ce9190610955565b60098190555050505050610988565b828054828255905f5260205f20908101928215610223579160200282015b828111156102225782518290816102129190610859565b50916020019190600101906101fb565b5b509050610230919061027f565b5090565b828054828255905f5260205f2090810192821561026e579160200282015b8281111561026d578251825591602001919060010190610252565b5b50905061027b91906102a2565b5090565b5b8082111561029e575f818161029591906102bd565b50600101610280565b5090565b5b808211156102b9575f815f9055506001016102a3565b5090565b5080546102c990610689565b5f825580601f106102da57506102f7565b601f0160209004905f5260205f20908101906102f691906102a2565b5b50565b5f604051905090565b5f5ffd5b5f5ffd5b5f5ffd5b5f5ffd5b5f601f19601f8301169050919050565b7f4e487b71000000000000000000000000000000000000000000000000000000005f52604160045260245ffd5b61035982610313565b810181811067ffffffffffffffff8211171561037857610377610323565b5b80604052505050565b5f61038a6102fa565b90506103968282610350565b919050565b5f67ffffffffffffffff8211156103b5576103b4610323565b5b6103be82610313565b9050602081019050919050565b8281835e5f83830152505050565b5f6103eb6103e68461039b565b610381565b9050828152602081018484840111156104075761040661030f565b5b6104128482856103cb565b509392505050565b5f82601f83011261042e5761042d61030b565b5b815161043e8482602086016103d9565b91505092915050565b5f67ffffffffffffffff82111561046157610460610323565b5b602082029050602081019050919050565b5f5ffd5b5f61048861048384610447565b610381565b905080838252602082019050602084028301858111156104ab576104aa610472565b5b835b818110156104f257805167ffffffffffffffff8111156104d0576104cf61030b565b5b8086016104dd898261041a565b855260208501945050506020810190506104ad565b5050509392505050565b5f82601f8301126105105761050f61030b565b5b8151610520848260208601610476565b91505092915050565b5f73ffffffffffffffffffffffffffffffffffffffff82169050919050565b5f61055282610529565b9050919050565b61056281610548565b811461056c575f5ffd5b50565b5f8151905061057d81610559565b92915050565b5f819050919050565b61059581610583565b811461059f575f5ffd5b50565b5f815190506105b08161058c565b92915050565b5f5f5f5f608085870312156105ce576105cd610303565b5b5f85015167ffffffffffffffff8111156105eb576105ea610307565b5b6105f78782880161041a565b945050602085015167ffffffffffffffff81111561061857610617610307565b5b610624878288016104fc565b93505060406106358782880161056f565b9250506060610646878288016105a2565b91505092959194509250565b5f81519050919050565b7f4e487b71000000000000000000000000000000000000000000000000000000005f52602260045260245ffd5b5f60028204905060018216806106a057607f821691505b6020821081036106b3576106b261065c565b5b50919050565b5f819050815f5260205f209050919050565b5f6020601f8301049050919050565b5f82821b905092915050565b5f600883026107157fffffffffffffffffffffffffffffffffffffffffffffffffffffffffffffffff826106da565b61071f86836106da565b95508019841693508086168417925050509392505050565b5f819050919050565b5f61075a61075561075084610583565b610737565b610583565b9050919050565b5f819050919050565b61077383610740565b61078761077f82610761565b8484546106e6565b825550505050565b5f5f905090565b61079e61078f565b6107a981848461076a565b505050565b5b818110156107cc576107c15f82610796565b6001810190506107af565b5050565b601f821115610811576107e2816106b9565b6107eb846106cb565b810160208510156107fa578190505b61080e610806856106cb565b8301826107ae565b50505b505050565b5f82821c905092915050565b5f6108315f1984600802610816565b1980831691505092915050565b5f6108498383610822565b9150826002028217905092915050565b61086282610652565b67ffffffffffffffff81111561087b5761087a610323565b5b6108858254610689565b6108908282856107d0565b5f60209050601f8311600181146108c1575f84156108af578287015190505b6108b9858261083e565b865550610920565b601f1984166108cf866106b9565b5f5b828110156108f6578489015182556001820191506020850194506020810190506108d1565b86831015610913578489015161090f601f891682610822565b8355505b6001600288020188555050505b505050505050565b7f4e487b71000000000000000000000000000000000000000000000000000000005f52601160045260245ffd5b5f61095f82610583565b915061096a83610583565b925082820190508082111561098257610981610928565b5b92915050565b611621806109955f395ff3fe608060405234801561000f575f5ffd5b50600436106100e8575f3560e01c80637e17031c1161008a57806382b4128d1161006457806382b4128d14610260578063895972d41461027e578063ce11f2bb146102ae578063f49e323e146102de576100e8565b80637e17031c146101e25780637e4e924f146102125780638287e42f14610230576100e8565b80634ba25656116100c65780634ba256561461015857806361cd30b1146101765780636f0470aa146101a65780637bf12ac4146101c4576100e8565b806315abd27e146100ec57806329dcb0cf1461011c57806347a553ad1461013a575b5f5ffd5b61010660048036038101906101019190610cd2565b61030e565b6040516101139190610d0c565b60405180910390f35b61012461032e565b6040516101319190610d0c565b60405180910390f35b610142610334565b60405161014f9190610d0c565b60405180910390f35b6101606103c9565b60405161016d9190610d64565b60405180910390f35b610190600480360381019061018b9190610dde565b6103ed565b60405161019d9190610e43565b60405180910390f35b6101ae610662565b6040516101bb9190610d0c565b60405180910390f35b6101cc610668565b6040516101d99190610d0c565b60405180910390f35b6101fc60048036038101906101f79190610cd2565b61066e565b6040516102099190610d0c565b60405180910390f35b61021a61068e565b6040516102279190610e43565b60405180910390f35b61024a60048036038101906102459190610cd2565b6106a8565b6040516102579190610ecc565b60405180910390f35b61026861074e565b6040516102759190610ecc565b60405180910390f35b61029860048036038101906102939190610f16565b6107da565b6040516102a59190610f5c565b60405180910390f35b6102c860048036038101906102c39190610fca565b6107f7565b6040516102d59190610e43565b60405180910390f35b6102f860048036038101906102f39190610cd2565b610b13565b6040516103059190610d0c565b60405180910390f35b6005818154811061031d575f80fd5b905f5260205f20015f915090505481565b60095481565b5f5f60045f8154811061034a57610349611015565b5b905f5260205f20015490505f5f90505f600190505b6004805490508110156103c057826004828154811061038157610380611015565b5b905f5260205f20015411156103b357600481815481106103a4576103a3611015565b5b905f5260205f20015492508091505b808060010191505061035f565b50809250505090565b5f5f9054906101000a900473ffffffffffffffffffffffffffffffffffffffff1681565b5f6009544210610432576040517f08c379a00000000000000000000000000000000000000000000000000000000081526004016104299061108c565b60405180910390fd5b5f5f9054906101000a900473ffffffffffffffffffffffffffffffffffffffff1673ffffffffffffffffffffffffffffffffffffffff163373ffffffffffffffffffffffffffffffffffffffff16146104c0576040517f08c379a00000000000000000000000000000000000000000000000000000000081526004016104b7906110f4565b60405180910390fd5b5f5f90505b83839050811015610657576002805f8686858181106104e7576104e6611015565b5b90506020020160208101906104fc9190610f16565b73ffffffffffffffffffffffffffffffffffffffff1673ffffffffffffffffffffffffffffffffffffffff1681526020019081526020015f205f9054906101000a900460ff1660ff16031561064a57600160025f86868581811061056357610562611015565b5b90506020020160208101906105789190610f16565b73ffffffffffffffffffffffffffffffffffffffff1673ffffffffffffffffffffffffffffffffffffffff1681526020019081526020015f205f6101000a81548160ff021916908360ff1602179055508383828181106105db576105da611015565b5b90506020020160208101906105f09190610f16565b73ffffffffffffffffffffffffffffffffffffffff163373ffffffffffffffffffffffffffffffffffffffff167f9b6a455a5658c11539ae0c585401a323231c71c64ad10427c4dfea5c5f709f4d60405160405180910390a35b80806001019150506104c5565b506001905092915050565b60085481565b60075481565b6004818154811061067d575f80fd5b905f5260205f20015f915090505481565b5f60095442106106a157600190506106a5565b5f90505b90565b600681815481106106b7575f80fd5b905f5260205f20015f9150905080546106cf9061113f565b80601f01602080910402602001604051908101604052809291908181526020018280546106fb9061113f565b80156107465780601f1061071d57610100808354040283529160200191610746565b820191905f5260205f20905b81548152906001019060200180831161072957829003601f168201915b505050505081565b6001805461075b9061113f565b80601f01602080910402602001604051908101604052809291908181526020018280546107879061113f565b80156107d25780601f106107a9576101008083540402835291602001916107d2565b820191905f5260205f20905b8154815290600101906020018083116107b557829003601f168201915b505050505081565b6002602052805f5260405f205f915054906101000a900460ff1681565b5f600954421061083c576040517f08c379a00000000000000000000000000000000000000000000000000000000081526004016108339061108c565b60405180910390fd5b600160025f3373ffffffffffffffffffffffffffffffffffffffff1673ffffffffffffffffffffffffffffffffffffffff1681526020019081526020015f205f9054906101000a900460ff1660ff16146108cb576040517f08c379a00000000000000000000000000000000000000000000000000000000081526004016108c2906111b9565b60405180910390fd5b6108d58383610b33565b506002805f3373ffffffffffffffffffffffffffffffffffffffff1673ffffffffffffffffffffffffffffffffffffffff1681526020019081526020015f205f6101000a81548160ff021916908360ff1602179055505f60075490505f5f90505b84849050811015610ab0575f85858381811061095557610954611015565b5b905060200201351115610aa3576005818154811061097657610975611015565b5b905f5260205f2001548261098a9190611204565b915084848281811061099f5761099e611015565b5b90506020020135600382815481106109ba576109b9611015565b5b905f5260205f20015f8282546109d09190611237565b925050819055505f6109fa8686848181106109ee576109ed611015565b5b90506020020135610c13565b90508060048381548110610a1157610a10611015565b5b905f5260205f20015f828254610a279190611237565b92505081905550600260048381548110610a4457610a43611015565b5b905f5260205f200154610a579190611399565b60058381548110610a6b57610a6a611015565b5b905f5260205f20018190555060058281548110610a8b57610a8a611015565b5b905f5260205f20015483610a9f9190611237565b9250505b8080600101915050610936565b50806007819055503373ffffffffffffffffffffffffffffffffffffffff167f75877e2c6cd34a033fad8c70f2c37371e79e8d34993d233921d6088ef397ad708585604051610b0092919061145b565b60405180910390a2600191505092915050565b60038181548110610b22575f80fd5b905f5260205f20015f915090505481565b5f6008548383905014610b7b576040517f08c379a0000000000000000000000000000000000000000000000000000000008152600401610b72906114c7565b60405180910390fd5b5f5f90505f5f90505b84849050811015610bc357848482818110610ba257610ba1611015565b5b9050602002013582610bb49190611237565b91508080600101915050610b84565b506064811115610c08576040517f08c379a0000000000000000000000000000000000000000000000000000000008152600401610bff9061152f565b60405180910390fd5b600191505092915050565b5f5f8203610c23575f9050610c92565b5f620f424083610c33919061154d565b90505f6002600183610c459190611237565b610c4f91906115bb565b90505f8290505b80821015610c8b578190506002828385610c7091906115bb565b610c7a9190611237565b610c8491906115bb565b9150610c56565b8093505050505b919050565b5f5ffd5b5f5ffd5b5f819050919050565b610cb181610c9f565b8114610cbb575f5ffd5b50565b5f81359050610ccc81610ca8565b92915050565b5f60208284031215610ce757610ce6610c97565b5b5f610cf484828501610cbe565b91505092915050565b610d0681610c9f565b82525050565b5f602082019050610d1f5f830184610cfd565b92915050565b5f73ffffffffffffffffffffffffffffffffffffffff82169050919050565b5f610d4e82610d25565b9050919050565b610d5e81610d44565b82525050565b5f602082019050610d775f830184610d55565b92915050565b5f5ffd5b5f5ffd5b5f5ffd5b5f5f83601f840112610d9e57610d9d610d7d565b5b8235905067ffffffffffffffff811115610dbb57610dba610d81565b5b602083019150836020820283011115610dd757610dd6610d85565b5b9250929050565b5f5f60208385031215610df457610df3610c97565b5b5f83013567ffffffffffffffff811115610e1157610e10610c9b565b5b610e1d85828601610d89565b92509250509250929050565b5f8115159050919050565b610e3d81610e29565b82525050565b5f602082019050610e565f830184610e34565b92915050565b5f81519050919050565b5f82825260208201905092915050565b8281835e5f83830152505050565b5f601f19601f8301169050919050565b5f610e9e82610e5c565b610ea88185610e66565b9350610eb8818560208601610e76565b610ec181610e84565b840191505092915050565b5f6020820190508181035f830152610ee48184610e94565b905092915050565b610ef581610d44565b8114610eff575f5ffd5b50565b5f81359050610f1081610eec565b92915050565b5f60208284031215610f2b57610f2a610c97565b5b5f610f3884828501610f02565b91505092915050565b5f60ff82169050919050565b610f5681610f41565b82525050565b5f602082019050610f6f5f830184610f4d565b92915050565b5f5f83601f840112610f8a57610f89610d7d565b5b8235905067ffffffffffffffff811115610fa757610fa6610d81565b5b602083019150836020820283011115610fc357610fc2610d85565b5b9250929050565b5f5f60208385031215610fe057610fdf610c97565b5b5f83013567ffffffffffffffff811115610ffd57610ffc610c9b565b5b61100985828601610f75565b92509250509250929050565b7f4e487b71000000000000000000000000000000000000000000000000000000005f52603260045260245ffd5b7f515620456e6465642100000000000000000000000000000000000000000000005f82015250565b5f611076600983610e66565b915061108182611042565b602082019050919050565b5f6020820190508181035f8301526110a38161106a565b9050919050565b7f4f6e6c79206f76657273656572210000000000000000000000000000000000005f82015250565b5f6110de600e83610e66565b91506110e9826110aa565b602082019050919050565b5f6020820190508181035f83015261110b816110d2565b9050919050565b7f4e487b71000000000000000000000000000000000000000000000000000000005f52602260045260245ffd5b5f600282049050600182168061115657607f821691505b60208210810361116957611168611112565b5b50919050565b7f416c726561647920766f746564206f7220496e656c696769626c6521000000005f82015250565b5f6111a3601c83610e66565b91506111ae8261116f565b602082019050919050565b5f6020820190508181035f8301526111d081611197565b9050919050565b7f4e487b71000000000000000000000000000000000000000000000000000000005f52601160045260245ffd5b5f61120e82610c9f565b915061121983610c9f565b9250828203905081811115611231576112306111d7565b5b92915050565b5f61124182610c9f565b915061124c83610c9f565b9250828201905080821115611264576112636111d7565b5b92915050565b5f8160011c9050919050565b5f5f8291508390505b60018511156112bf5780860481111561129b5761129a6111d7565b5b60018516156112aa5780820291505b80810290506112b88561126a565b945061127f565b94509492505050565b5f826112d75760019050611392565b816112e4575f9050611392565b81600181146112fa576002811461130457611333565b6001915050611392565b60ff841115611316576113156111d7565b5b8360020a91508482111561132d5761132c6111d7565b5b50611392565b5060208310610133831016604e8410600b84101617156113685782820a905083811115611363576113626111d7565b5b611392565b6113758484846001611276565b9250905081840481111561138c5761138b6111d7565b5b81810290505b9392505050565b5f6113a382610c9f565b91506113ae83610f41565b92506113db7fffffffffffffffffffffffffffffffffffffffffffffffffffffffffffffffff84846112c8565b905092915050565b5f82825260208201905092915050565b5f5ffd5b82818337505050565b5f61140b83856113e3565b93507f07ffffffffffffffffffffffffffffffffffffffffffffffffffffffffffffff83111561143e5761143d6113f3565b5b60208302925061144f8385846113f7565b82840190509392505050565b5f6020820190508181035f830152611474818486611400565b90509392505050565b7f43616e64696461746520636f756e74206d69736d6174636821000000000000005f82015250565b5f6114b1601983610e66565b91506114bc8261147d565b602082019050919050565b5f6020820190508181035f8301526114de816114a5565b9050919050565b7f457863656564732031303020766f7465732100000000000000000000000000005f82015250565b5f611519601283610e66565b9150611524826114e5565b602082019050919050565b5f6020820190508181035f8301526115468161150d565b9050919050565b5f61155782610c9f565b915061156283610c9f565b925082820261157081610c9f565b91508282048414831517611587576115866111d7565b5b5092915050565b7f4e487b71000000000000000000000000000000000000000000000000000000005f52601260045260245ffd5b5f6115c582610c9f565b91506115d083610c9f565b9250826115e0576115df61158e565b5b82820490509291505056fea2646970667358221220889dba61123a1abc847b4b2930d36ebc6f6d92384e9f75530b469995ba7abaeb64736f6c634300081e0033","linkReferences":{}},"methodIdentifiers":{"QVended()":"7e4e924f","QVname()":"82b4128d","candidateNames(uint256)":"8287e42f","candidateVotes(uint256)":"f49e323e","candidates()":"6f0470aa","deadline()":"29dcb0cf","giveVoteAccess(address[])":"61cd30b1","leadingCandidate()":"47a553ad","overseer()":"4ba25656","quadTotal()":"7bf12ac4","quadcandyVotes(uint256)":"15abd27e","sqrtcandyVotes(uint256)":"7e17031c","vote(uint256[])":"ce11f2bb","voteStatus(address)":"895972d4"},"id":16}