{"abi":[{"type":"constructor","inputs":[{"name":"_QVname","type":"string","internalType":"string"},{"name":"_candidates","type":"string[]","internalType":"string[]"},{"name":"_overseer","type":"address","internalType":"address"},{"name":"_deadline","type":"uint256","internalType":"uint256"}],"stateMutability":"nonpayable"},{"type":"function","name":"QVname","inputs":[],"outputs":[{"name":"","type":"string","internalType":"string"}],"stateMutability":"view"},{"type":"function","name":"QVstatus","inputs":[],"outputs":[{"name":"","type":"bool","internalType":"bool"}],"stateMutability":"view"},{"type":"function","name":"candidateNames","inputs":[{"name":"","type":"uint256","internalType":"uint256"}],"outputs":[{"name":"","type":"string","internalType":"string"}],"stateMutability":"view"},{"type":"function","name":"candidateVotes","inputs":[{"name":"","type":"uint256","internalType":"uint256"}],"outputs":[{"name":"","type":"uint256","internalType":"uint256"}],"stateMutability":"view"},{"type":"function","name":"candidates","inputs":[],"outputs":[{"name":"","type":"uint256","internalType":"uint256"}],"stateMutability":"view"},{"type":"function","name":"deadline","inputs":[],"outputs":[{"name":"","type":"uint256","internalType":"uint256"}],"stateMutability":"view"},{"type":"function","name":"giveVoteAccess","inputs":[{"name":"addresses","type":"address[]","internalType":"address[]"}],"outputs":[{"name":"","type":"bool","internalType":"bool"}],"stateMutability":"nonpayable"},{"type":"function","name":"overseer","inputs":[],"outputs":[{"name":"","type":"address","internalType":"address"}],"stateMutability":"view"},{"type":"function","name":"quadTotal","inputs":[],"outputs":[{"name":"","type":"uint256","internalType":"uint256"}],"stateMutability":"view"},{"type":"function","name":"quadcandyVotes","inputs":[{"name":"","type":"uint256","internalType":"uint256"}],"outputs":[{"name":"","type":"uint256","internalType":"uint256"}],"stateMutability":"view"},{"type":"function","name":"sqrtcandyVotes","inputs":[{"name":"","type":"uint256","internalType":"uint256"}],"outputs":[{"name":"","type":"uint256","internalType":"uint256"}],"stateMutability":"view"},{"type":"function","name":"vote","inputs":[{"name":"_votes","type":"uint256[]","internalType":"uint256[]"}],"outputs":[{"name":"","type":"bool","internalType":"bool"}],"stateMutability":"nonpayable"},{"type":"function","name":"voteStatus","inputs":[{"name":"","type":"address","internalType":"address"}],"outputs":[{"name":"","type":"bool","internalType":"bool"}],"stateMutability":"view"}],"bytecode":{"object":"0x608060405234801561000f575f5ffd5b50604051611bed380380611bed833981810160405281019061003191906105ab565b815f5f6101000a81548173ffffffffffffffffffffffffffffffffffffffff021916908373ffffffffffffffffffffffffffffffffffffffff160217905550836001908161007f919061084e565b508251600881905550826006908051906020019061009e9291906101d2565b5060085467ffffffffffffffff8111156100bb576100ba610318565b5b6040519080825280602002602001820160405280156100e95781602001602082028036833780820191505090505b50600390805190602001906100ff929190610229565b5060085467ffffffffffffffff81111561011c5761011b610318565b5b60405190808252806020026020018201604052801561014a5781602001602082028036833780820191505090505b5060049080519060200190610160929190610229565b5060085467ffffffffffffffff81111561017d5761017c610318565b5b6040519080825280602002602001820160405280156101ab5781602001602082028036833780820191505090505b50600590805190602001906101c1929190610229565b50806009819055505050505061091d565b828054828255905f5260205f20908101928215610218579160200282015b82811115610217578251829081610207919061084e565b50916020019190600101906101f0565b5b5090506102259190610274565b5090565b828054828255905f5260205f20908101928215610263579160200282015b82811115610262578251825591602001919060010190610247565b5b5090506102709190610297565b5090565b5b80821115610293575f818161028a91906102b2565b50600101610275565b5090565b5b808211156102ae575f815f905550600101610298565b5090565b5080546102be9061067e565b5f825580601f106102cf57506102ec565b601f0160209004905f5260205f20908101906102eb9190610297565b5b50565b5f604051905090565b5f5ffd5b5f5ffd5b5f5ffd5b5f5ffd5b5f601f19601f8301169050919050565b7f4e487b71000000000000000000000000000000000000000000000000000000005f52604160045260245ffd5b61034e82610308565b810181811067ffffffffffffffff8211171561036d5761036c610318565b5b80604052505050565b5f61037f6102ef565b905061038b8282610345565b919050565b5f67ffffffffffffffff8211156103aa576103a9610318565b5b6103b382610308565b9050602081019050919050565b8281835e5f83830152505050565b5f6103e06103db84610390565b610376565b9050828152602081018484840111156103fc576103fb610304565b5b6104078482856103c0565b509392505050565b5f82601f83011261042357610422610300565b5b81516104338482602086016103ce565b91505092915050565b5f67ffffffffffffffff82111561045657610455610318565b5b602082029050602081019050919050565b5f5ffd5b5f61047d6104788461043c565b610376565b905080838252602082019050602084028301858111156104a05761049f610467565b5b835b818110156104e757805167ffffffffffffffff8111156104c5576104c4610300565b5b8086016104d2898261040f565b855260208501945050506020810190506104a2565b5050509392505050565b5f82601f83011261050557610504610300565b5b815161051584826020860161046b565b91505092915050565b5f73ffffffffffffffffffffffffffffffffffffffff82169050919050565b5f6105478261051e565b9050919050565b6105578161053d565b8114610561575f5ffd5b50565b5f815190506105728161054e565b92915050565b5f819050919050565b61058a81610578565b8114610594575f5ffd5b50565b5f815190506105a581610581565b92915050565b5f5f5f5f608085870312156105c3576105c26102f8565b5b5f85015167ffffffffffffffff8111156105e0576105df6102fc565b5b6105ec8782880161040f565b945050602085015167ffffffffffffffff81111561060d5761060c6102fc565b5b610619878288016104f1565b935050604061062a87828801610564565b925050606061063b87828801610597565b91505092959194509250565b5f81519050919050565b7f4e487b71000000000000000000000000000000000000000000000000000000005f52602260045260245ffd5b5f600282049050600182168061069557607f821691505b6020821081036106a8576106a7610651565b5b50919050565b5f819050815f5260205f209050919050565b5f6020601f8301049050919050565b5f82821b905092915050565b5f6008830261070a7fffffffffffffffffffffffffffffffffffffffffffffffffffffffffffffffff826106cf565b61071486836106cf565b95508019841693508086168417925050509392505050565b5f819050919050565b5f61074f61074a61074584610578565b61072c565b610578565b9050919050565b5f819050919050565b61076883610735565b61077c61077482610756565b8484546106db565b825550505050565b5f5f905090565b610793610784565b61079e81848461075f565b505050565b5b818110156107c1576107b65f8261078b565b6001810190506107a4565b5050565b601f821115610806576107d7816106ae565b6107e0846106c0565b810160208510156107ef578190505b6108036107fb856106c0565b8301826107a3565b50505b505050565b5f82821c905092915050565b5f6108265f198460080261080b565b1980831691505092915050565b5f61083e8383610817565b9150826002028217905092915050565b61085782610647565b67ffffffffffffffff8111156108705761086f610318565b5b61087a825461067e565b6108858282856107c5565b5f60209050601f8311600181146108b6575f84156108a4578287015190505b6108ae8582610833565b865550610915565b601f1984166108c4866106ae565b5f5b828110156108eb578489015182556001820191506020850194506020810190506108c6565b868310156109085784890151610904601f891682610817565b8355505b6001600288020188555050505b505050505050565b6112c38061092a5f395ff3fe608060405234801561000f575f5ffd5b50600436106100cd575f3560e01c80637bf12ac41161008a57806382b4128d1161006457806382b4128d14610227578063895972d414610245578063ce11f2bb14610275578063f49e323e146102a5576100cd565b80637bf12ac4146101a95780637e17031c146101c75780638287e42f146101f7576100cd565b806315abd27e146100d157806329dcb0cf146101015780634ba256561461011f57806352223f7d1461013d57806361cd30b11461015b5780636f0470aa1461018b575b5f5ffd5b6100eb60048036038101906100e69190610a69565b6102d5565b6040516100f89190610aa3565b60405180910390f35b6101096102f5565b6040516101169190610aa3565b60405180910390f35b6101276102fb565b6040516101349190610afb565b60405180910390f35b61014561031f565b6040516101529190610b2e565b60405180910390f35b61017560048036038101906101709190610ba8565b61033a565b6040516101829190610b2e565b60405180910390f35b6101936104b1565b6040516101a09190610aa3565b60405180910390f35b6101b16104b7565b6040516101be9190610aa3565b60405180910390f35b6101e160048036038101906101dc9190610a69565b6104bd565b6040516101ee9190610aa3565b60405180910390f35b610211600480360381019061020c9190610a69565b6104dd565b60405161021e9190610c63565b60405180910390f35b61022f610583565b60405161023c9190610c63565b60405180910390f35b61025f600480360381019061025a9190610cad565b61060f565b60405161026c9190610b2e565b60405180910390f35b61028f600480360381019061028a9190610d2d565b61062c565b60405161029c9190610b2e565b60405180910390f35b6102bf60048036038101906102ba9190610a69565b6108aa565b6040516102cc9190610aa3565b60405180910390f35b600581815481106102e4575f80fd5b905f5260205f20015f915090505481565b60095481565b5f5f9054906101000a900473ffffffffffffffffffffffffffffffffffffffff1681565b5f6009544210156103335760019050610337565b5f90505b90565b5f600954421061037f576040517f08c379a000000000000000000000000000000000000000000000000000000000815260040161037690610dc2565b60405180910390fd5b5f5f9054906101000a900473ffffffffffffffffffffffffffffffffffffffff1673ffffffffffffffffffffffffffffffffffffffff163373ffffffffffffffffffffffffffffffffffffffff161461040d576040517f08c379a000000000000000000000000000000000000000000000000000000000815260040161040490610e2a565b60405180910390fd5b5f5f90505b838390508110156104a657600160025f86868581811061043557610434610e48565b5b905060200201602081019061044a9190610cad565b73ffffffffffffffffffffffffffffffffffffffff1673ffffffffffffffffffffffffffffffffffffffff1681526020019081526020015f205f6101000a81548160ff0219169083151502179055508080600101915050610412565b506001905092915050565b60085481565b60075481565b600481815481106104cc575f80fd5b905f5260205f20015f915090505481565b600681815481106104ec575f80fd5b905f5260205f20015f91509050805461050490610ea2565b80601f016020809104026020016040519081016040528092919081815260200182805461053090610ea2565b801561057b5780601f106105525761010080835404028352916020019161057b565b820191905f5260205f20905b81548152906001019060200180831161055e57829003601f168201915b505050505081565b6001805461059090610ea2565b80601f01602080910402602001604051908101604052809291908181526020018280546105bc90610ea2565b80156106075780601f106105de57610100808354040283529160200191610607565b820191905f5260205f20905b8154815290600101906020018083116105ea57829003601f168201915b505050505081565b6002602052805f5260405f205f915054906101000a900460ff1681565b5f6009544210610671576040517f08c379a000000000000000000000000000000000000000000000000000000000815260040161066890610dc2565b60405180910390fd5b6001151560025f3373ffffffffffffffffffffffffffffffffffffffff1673ffffffffffffffffffffffffffffffffffffffff1681526020019081526020015f205f9054906101000a900460ff16151514610701576040517f08c379a00000000000000000000000000000000000000000000000000000000081526004016106f890610f1c565b60405180910390fd5b61070b83836108ca565b505f60025f3373ffffffffffffffffffffffffffffffffffffffff1673ffffffffffffffffffffffffffffffffffffffff1681526020019081526020015f205f6101000a81548160ff0219169083151502179055505f5f90505f5f90505b848490508110156108975784848281811061078757610786610e48565b5b90506020020135600382815481106107a2576107a1610e48565b5b905f5260205f20015f8282546107b89190610f67565b925050819055505f6107e28686848181106107d6576107d5610e48565b5b905060200201356109aa565b905080600483815481106107f9576107f8610e48565b5b905f5260205f20015f82825461080f9190610f67565b9250508190555060026004838154811061082c5761082b610e48565b5b905f5260205f20015461083f91906110d5565b6005838154811061085357610852610e48565b5b905f5260205f2001819055506005828154811061087357610872610e48565b5b905f5260205f200154836108879190610f67565b9250508080600101915050610769565b5080600781905550600191505092915050565b600381815481106108b9575f80fd5b905f5260205f20015f915090505481565b5f6008548383905014610912576040517f08c379a000000000000000000000000000000000000000000000000000000000815260040161090990611169565b60405180910390fd5b5f5f90505f5f90505b8484905081101561095a5784848281811061093957610938610e48565b5b905060200201358261094b9190610f67565b9150808060010191505061091b565b50606481111561099f576040517f08c379a0000000000000000000000000000000000000000000000000000000008152600401610996906111d1565b60405180910390fd5b600191505092915050565b5f5f82036109ba575f9050610a29565b5f620f4240836109ca91906111ef565b90505f60026001836109dc9190610f67565b6109e6919061125d565b90505f8290505b80821015610a22578190506002828385610a07919061125d565b610a119190610f67565b610a1b919061125d565b91506109ed565b8093505050505b919050565b5f5ffd5b5f5ffd5b5f819050919050565b610a4881610a36565b8114610a52575f5ffd5b50565b5f81359050610a6381610a3f565b92915050565b5f60208284031215610a7e57610a7d610a2e565b5b5f610a8b84828501610a55565b91505092915050565b610a9d81610a36565b82525050565b5f602082019050610ab65f830184610a94565b92915050565b5f73ffffffffffffffffffffffffffffffffffffffff82169050919050565b5f610ae582610abc565b9050919050565b610af581610adb565b82525050565b5f602082019050610b0e5f830184610aec565b92915050565b5f8115159050919050565b610b2881610b14565b82525050565b5f602082019050610b415f830184610b1f565b92915050565b5f5ffd5b5f5ffd5b5f5ffd5b5f5f83601f840112610b6857610b67610b47565b5b8235905067ffffffffffffffff811115610b8557610b84610b4b565b5b602083019150836020820283011115610ba157610ba0610b4f565b5b9250929050565b5f5f60208385031215610bbe57610bbd610a2e565b5b5f83013567ffffffffffffffff811115610bdb57610bda610a32565b5b610be785828601610b53565b92509250509250929050565b5f81519050919050565b5f82825260208201905092915050565b8281835e5f83830152505050565b5f601f19601f8301169050919050565b5f610c3582610bf3565b610c3f8185610bfd565b9350610c4f818560208601610c0d565b610c5881610c1b565b840191505092915050565b5f6020820190508181035f830152610c7b8184610c2b565b905092915050565b610c8c81610adb565b8114610c96575f5ffd5b50565b5f81359050610ca781610c83565b92915050565b5f60208284031215610cc257610cc1610a2e565b5b5f610ccf84828501610c99565b91505092915050565b5f5f83601f840112610ced57610cec610b47565b5b8235905067ffffffffffffffff811115610d0a57610d09610b4b565b5b602083019150836020820283011115610d2657610d25610b4f565b5b9250929050565b5f5f60208385031215610d4357610d42610a2e565b5b5f83013567ffffffffffffffff811115610d6057610d5f610a32565b5b610d6c85828601610cd8565b92509250509250929050565b7f515620456e6465642100000000000000000000000000000000000000000000005f82015250565b5f610dac600983610bfd565b9150610db782610d78565b602082019050919050565b5f6020820190508181035f830152610dd981610da0565b9050919050565b7f4f6e6c79206f76657273656572210000000000000000000000000000000000005f82015250565b5f610e14600e83610bfd565b9150610e1f82610de0565b602082019050919050565b5f6020820190508181035f830152610e4181610e08565b9050919050565b7f4e487b71000000000000000000000000000000000000000000000000000000005f52603260045260245ffd5b7f4e487b71000000000000000000000000000000000000000000000000000000005f52602260045260245ffd5b5f6002820490506001821680610eb957607f821691505b602082108103610ecc57610ecb610e75565b5b50919050565b7f416c726561647920766f746564206f7220496e656c696769626c6521000000005f82015250565b5f610f06601c83610bfd565b9150610f1182610ed2565b602082019050919050565b5f6020820190508181035f830152610f3381610efa565b9050919050565b7f4e487b71000000000000000000000000000000000000000000000000000000005f52601160045260245ffd5b5f610f7182610a36565b9150610f7c83610a36565b9250828201905080821115610f9457610f93610f3a565b5b92915050565b5f8160011c9050919050565b5f5f8291508390505b6001851115610fef57808604811115610fcb57610fca610f3a565b5b6001851615610fda5780820291505b8081029050610fe885610f9a565b9450610faf565b94509492505050565b5f8261100757600190506110c2565b81611014575f90506110c2565b816001811461102a576002811461103457611063565b60019150506110c2565b60ff84111561104657611045610f3a565b5b8360020a91508482111561105d5761105c610f3a565b5b506110c2565b5060208310610133831016604e8410600b84101617156110985782820a90508381111561109357611092610f3a565b5b6110c2565b6110a58484846001610fa6565b925090508184048111156110bc576110bb610f3a565b5b81810290505b9392505050565b5f60ff82169050919050565b5f6110df82610a36565b91506110ea836110c9565b92506111177fffffffffffffffffffffffffffffffffffffffffffffffffffffffffffffffff8484610ff8565b905092915050565b7f43616e64696461746520636f756e74206d69736d6174636821000000000000005f82015250565b5f611153601983610bfd565b915061115e8261111f565b602082019050919050565b5f6020820190508181035f83015261118081611147565b9050919050565b7f457863656564732031303020766f7465732100000000000000000000000000005f82015250565b5f6111bb601283610bfd565b91506111c682611187565b602082019050919050565b5f6020820190508181035f8301526111e8816111af565b9050919050565b5f6111f982610a36565b915061120483610a36565b925082820261121281610a36565b9150828204841483151761122957611228610f3a565b5b5092915050565b7f4e487b71000000000000000000000000000000000000000000000000000000005f52601260045260245ffd5b5f61126782610a36565b915061127283610a36565b92508261128257611281611230565b5b82820490509291505056fea2646970667358221220dbcd557dfc536ee112acc5992c1022f996222a24dedcff028b5a9c22781d8b8a64736f6c634300081e0033","linkReferences":{}},"methodIdentifiers":{"QVname()":"82b4128d","QVstatus()":"52223f7d","candidateNames(uint256)":"8287e42f","candidateVotes(uint256)":"f49e323e","candidates()":"6f0470aa","deadline()":"29dcb0cf","giveVoteAccess(address[])":"61cd30b1","overseer()":"4ba25656","quadTotal()":"7bf12ac4","quadcandyVotes(uint256)":"15abd27e","sqrtcandyVotes(uint256)":"7e17031c","vote(uint256[])":"ce11f2bb","voteStatus(address)":"895972d4"},"id":16}