{"abi":[{"type":"constructor","inputs":[{"name":"_QVname","type":"string","internalType":"string"},{"name":"_candidates","type":"string[]","internalType":"string[]"},{"name":"_overseer","type":"address","internalType":"address"},{"name":"_deadline","type":"uint256","internalType":"uint256"}],"stateMutability":"nonpayable"},{"type":"function","name":"QVended","inputs":[],"outputs":[{"name":"","type":"bool","internalType":"bool"}],"stateMutability":"view"},{"type":"function","name":"QVname","inputs":[],"outputs":[{"name":"","type":"string","internalType":"string"}],"stateMutability":"view"},{"type":"function","name":"candidateNames","inputs":[{"name":"","type":"uint256","internalType":"uint256"}],"outputs":[{"name":"","type":"string","internalType":"string"}],"stateMutability":"view"},{"type":"function","name":"candidateVotes","inputs":[{"name":"","type":"uint256","internalType":"uint256"}],"outputs":[{"name":"","type":"uint256","internalType":"uint256"}],"stateMutability":"view"},{"type":"function","name":"candidates","inputs":[],"outputs":[{"name":"","type":"uint256","internalType":"uint256"}],"stateMutability":"view"},{"type":"function","name":"deadline","inputs":[],"outputs":[{"name":"","type":"uint256","internalType":"uint256"}],"stateMutability":"view"},{"type":"function","name":"giveVoteAccess","inputs":[{"name":"addresses","type":"address[]","internalType":"address[]"}],"outputs":[{"name":"","type":"bool","internalType":"bool"}],"stateMutability":"nonpayable"},{"type":"function","name":"leadingCandidate","inputs":[],"outputs":[{"name":"","type":"uint256","internalType":"uint256"}],"stateMutability":"view"},{"type":"function","name":"overseer","inputs":[],"outputs":[{"name":"","type":"address","internalType":"address"}],"stateMutability":"view"},{"type":"function","name":"quadTotal","inputs":[],"outputs":[{"name":"","type":"uint256","internalType":"uint256"}],"stateMutability":"view"},{"type":"function","name":"quadcandyVotes","inputs":[{"name":"","type":"uint256","internalType":"uint256"}],"outputs":[{"name":"","type":"uint256","internalType":"uint256"}],"stateMutability":"view"},{"type":"function","name":"sqrtcandyVotes","inputs":[{"name":"","type":"uint256","internalType":"uint256"}],"outputs":[{"name":"","type":"uint256","internalType":"uint256"}],"stateMutability":"view"},{"type":"function","name":"vote","inputs":[{"name":"_votes","type":"uint256[]","internalType":"uint256[]"}],"outputs":[{"name":"","type":"bool","internalType":"bool"}],"stateMutability":"nonpayable"},{"type":"function","name":"voteStatus","inputs":[{"name":"","type":"address","internalType":"address"}],"outputs":[{"name":"","type":"uint8","internalType":"uint8"}],"stateMutability":"view"}],"bytecode":{"object":"0x608060405234801561000f575f5ffd5b50604051611dca380380611dca833981810160405281019061003191906105b6565b815f5f6101000a81548173ffffffffffffffffffffffffffffffffffffffff021916908373ffffffffffffffffffffffffffffffffffffffff160217905550836001908161007f9190610859565b508251600881905550826006908051906020019061009e9291906101dd565b5060085467ffffffffffffffff8111156100bb576100ba610323565b5b6040519080825280602002602001820160405280156100e95781602001602082028036833780820191505090505b50600390805190602001906100ff929190610234565b5060085467ffffffffffffffff81111561011c5761011b610323565b5b60405190808252806020026020018201604052801561014a5781602001602082028036833780820191505090505b5060049080519060200190610160929190610234565b5060085467ffffffffffffffff81111561017d5761017c610323565b5b6040519080825280602002602001820160405280156101ab5781602001602082028036833780820191505090505b50600590805190602001906101c1929190610234565b5080426101ce9190610955565b60098190555050505050610988565b828054828255905f5260205f20908101928215610223579160200282015b828111156102225782518290816102129190610859565b50916020019190600101906101fb565b5b509050610230919061027f565b5090565b828054828255905f5260205f2090810192821561026e579160200282015b8281111561026d578251825591602001919060010190610252565b5b50905061027b91906102a2565b5090565b5b8082111561029e575f818161029591906102bd565b50600101610280565b5090565b5b808211156102b9575f815f9055506001016102a3565b5090565b5080546102c990610689565b5f825580601f106102da57506102f7565b601f0160209004905f5260205f20908101906102f691906102a2565b5b50565b5f604051905090565b5f5ffd5b5f5ffd5b5f5ffd5b5f5ffd5b5f601f19601f8301169050919050565b7f4e487b71000000000000000000000000000000000000000000000000000000005f52604160045260245ffd5b61035982610313565b810181811067ffffffffffffffff8211171561037857610377610323565b5b80604052505050565b5f61038a6102fa565b90506103968282610350565b919050565b5f67ffffffffffffffff8211156103b5576103b4610323565b5b6103be82610313565b9050602081019050919050565b8281835e5f83830152505050565b5f6103eb6103e68461039b565b610381565b9050828152602081018484840111156104075761040661030f565b5b6104128482856103cb565b509392505050565b5f82601f83011261042e5761042d61030b565b5b815161043e8482602086016103d9565b91505092915050565b5f67ffffffffffffffff82111561046157610460610323565b5b602082029050602081019050919050565b5f5ffd5b5f61048861048384610447565b610381565b905080838252602082019050602084028301858111156104ab576104aa610472565b5b835b818110156104f257805167ffffffffffffffff8111156104d0576104cf61030b565b5b8086016104dd898261041a565b855260208501945050506020810190506104ad565b5050509392505050565b5f82601f8301126105105761050f61030b565b5b8151610520848260208601610476565b91505092915050565b5f73ffffffffffffffffffffffffffffffffffffffff82169050919050565b5f61055282610529565b9050919050565b61056281610548565b811461056c575f5ffd5b50565b5f8151905061057d81610559565b92915050565b5f819050919050565b61059581610583565b811461059f575f5ffd5b50565b5f815190506105b08161058c565b92915050565b5f5f5f5f608085870312156105ce576105cd610303565b5b5f85015167ffffffffffffffff8111156105eb576105ea610307565b5b6105f78782880161041a565b945050602085015167ffffffffffffffff81111561061857610617610307565b5b610624878288016104fc565b93505060406106358782880161056f565b9250506060610646878288016105a2565b91505092959194509250565b5f81519050919050565b7f4e487b71000000000000000000000000000000000000000000000000000000005f52602260045260245ffd5b5f60028204905060018216806106a057607f821691505b6020821081036106b3576106b261065c565b5b50919050565b5f819050815f5260205f209050919050565b5f6020601f8301049050919050565b5f82821b905092915050565b5f600883026107157fffffffffffffffffffffffffffffffffffffffffffffffffffffffffffffffff826106da565b61071f86836106da565b95508019841693508086168417925050509392505050565b5f819050919050565b5f61075a61075561075084610583565b610737565b610583565b9050919050565b5f819050919050565b61077383610740565b61078761077f82610761565b8484546106e6565b825550505050565b5f5f905090565b61079e61078f565b6107a981848461076a565b505050565b5b818110156107cc576107c15f82610796565b6001810190506107af565b5050565b601f821115610811576107e2816106b9565b6107eb846106cb565b810160208510156107fa578190505b61080e610806856106cb565b8301826107ae565b50505b505050565b5f82821c905092915050565b5f6108315f1984600802610816565b1980831691505092915050565b5f6108498383610822565b9150826002028217905092915050565b61086282610652565b67ffffffffffffffff81111561087b5761087a610323565b5b6108858254610689565b6108908282856107d0565b5f60209050601f8311600181146108c1575f84156108af578287015190505b6108b9858261083e565b865550610920565b601f1984166108cf866106b9565b5f5b828110156108f6578489015182556001820191506020850194506020810190506108d1565b86831015610913578489015161090f601f891682610822565b8355505b6001600288020188555050505b505050505050565b7f4e487b71000000000000000000000000000000000000000000000000000000005f52601160045260245ffd5b5f61095f82610583565b915061096a83610583565b925082820190508082111561098257610981610928565b5b92915050565b611435806109955f395ff3fe608060405234801561000f575f5ffd5b50600436106100e8575f3560e01c80637e17031c1161008a57806382b4128d1161006457806382b4128d14610260578063895972d41461027e578063ce11f2bb146102ae578063f49e323e146102de576100e8565b80637e17031c146101e25780637e4e924f146102125780638287e42f14610230576100e8565b80634ba25656116100c65780634ba256561461015857806361cd30b1146101765780636f0470aa146101a65780637bf12ac4146101c4576100e8565b806315abd27e146100ec57806329dcb0cf1461011c57806347a553ad1461013a575b5f5ffd5b61010660048036038101906101019190610bb3565b61030e565b6040516101139190610bed565b60405180910390f35b61012461032e565b6040516101319190610bed565b60405180910390f35b610142610334565b60405161014f9190610bed565b60405180910390f35b6101606103c9565b60405161016d9190610c45565b60405180910390f35b610190600480360381019061018b9190610cbf565b6103ed565b60405161019d9190610d24565b60405180910390f35b6101ae6105e1565b6040516101bb9190610bed565b60405180910390f35b6101cc6105e7565b6040516101d99190610bed565b60405180910390f35b6101fc60048036038101906101f79190610bb3565b6105ed565b6040516102099190610bed565b60405180910390f35b61021a61060d565b6040516102279190610d24565b60405180910390f35b61024a60048036038101906102459190610bb3565b610627565b6040516102579190610dad565b60405180910390f35b6102686106cd565b6040516102759190610dad565b60405180910390f35b61029860048036038101906102939190610df7565b610759565b6040516102a59190610e3d565b60405180910390f35b6102c860048036038101906102c39190610eab565b610776565b6040516102d59190610d24565b60405180910390f35b6102f860048036038101906102f39190610bb3565b6109f4565b6040516103059190610bed565b60405180910390f35b6005818154811061031d575f80fd5b905f5260205f20015f915090505481565b60095481565b5f5f60035f8154811061034a57610349610ef6565b5b905f5260205f20015490505f5f90505f600190505b6003805490508110156103c057826003828154811061038157610380610ef6565b5b905f5260205f20015411156103b357600381815481106103a4576103a3610ef6565b5b905f5260205f20015492508091505b808060010191505061035f565b50809250505090565b5f5f9054906101000a900473ffffffffffffffffffffffffffffffffffffffff1681565b5f6009544210610432576040517f08c379a000000000000000000000000000000000000000000000000000000000815260040161042990610f6d565b60405180910390fd5b5f5f9054906101000a900473ffffffffffffffffffffffffffffffffffffffff1673ffffffffffffffffffffffffffffffffffffffff163373ffffffffffffffffffffffffffffffffffffffff16146104c0576040517f08c379a00000000000000000000000000000000000000000000000000000000081526004016104b790610fd5565b60405180910390fd5b5f5f90505b838390508110156105d6576002805f8686858181106104e7576104e6610ef6565b5b90506020020160208101906104fc9190610df7565b73ffffffffffffffffffffffffffffffffffffffff1673ffffffffffffffffffffffffffffffffffffffff1681526020019081526020015f205f9054906101000a900460ff1660ff1603156105c957600160025f86868581811061056357610562610ef6565b5b90506020020160208101906105789190610df7565b73ffffffffffffffffffffffffffffffffffffffff1673ffffffffffffffffffffffffffffffffffffffff1681526020019081526020015f205f6101000a81548160ff021916908360ff1602179055505b80806001019150506104c5565b506001905092915050565b60085481565b60075481565b600481815481106105fc575f80fd5b905f5260205f20015f915090505481565b5f60095442106106205760019050610624565b5f90505b90565b60068181548110610636575f80fd5b905f5260205f20015f91509050805461064e90611020565b80601f016020809104026020016040519081016040528092919081815260200182805461067a90611020565b80156106c55780601f1061069c576101008083540402835291602001916106c5565b820191905f5260205f20905b8154815290600101906020018083116106a857829003601f168201915b505050505081565b600180546106da90611020565b80601f016020809104026020016040519081016040528092919081815260200182805461070690611020565b80156107515780601f1061072857610100808354040283529160200191610751565b820191905f5260205f20905b81548152906001019060200180831161073457829003601f168201915b505050505081565b6002602052805f5260405f205f915054906101000a900460ff1681565b5f60095442106107bb576040517f08c379a00000000000000000000000000000000000000000000000000000000081526004016107b290610f6d565b60405180910390fd5b600160025f3373ffffffffffffffffffffffffffffffffffffffff1673ffffffffffffffffffffffffffffffffffffffff1681526020019081526020015f205f9054906101000a900460ff1660ff161461084a576040517f08c379a00000000000000000000000000000000000000000000000000000000081526004016108419061109a565b60405180910390fd5b6108548383610a14565b506002805f3373ffffffffffffffffffffffffffffffffffffffff1673ffffffffffffffffffffffffffffffffffffffff1681526020019081526020015f205f6101000a81548160ff021916908360ff1602179055505f5f90505f5f90505b848490508110156109e1578484828181106108d1576108d0610ef6565b5b90506020020135600382815481106108ec576108eb610ef6565b5b905f5260205f20015f82825461090291906110e5565b925050819055505f61092c8686848181106109205761091f610ef6565b5b90506020020135610af4565b9050806004838154811061094357610942610ef6565b5b905f5260205f20015f82825461095991906110e5565b9250508190555060026004838154811061097657610975610ef6565b5b905f5260205f2001546109899190611247565b6005838154811061099d5761099c610ef6565b5b905f5260205f200181905550600582815481106109bd576109bc610ef6565b5b905f5260205f200154836109d191906110e5565b92505080806001019150506108b3565b5080600781905550600191505092915050565b60038181548110610a03575f80fd5b905f5260205f20015f915090505481565b5f6008548383905014610a5c576040517f08c379a0000000000000000000000000000000000000000000000000000000008152600401610a53906112db565b60405180910390fd5b5f5f90505f5f90505b84849050811015610aa457848482818110610a8357610a82610ef6565b5b9050602002013582610a9591906110e5565b91508080600101915050610a65565b506064811115610ae9576040517f08c379a0000000000000000000000000000000000000000000000000000000008152600401610ae090611343565b60405180910390fd5b600191505092915050565b5f5f8203610b04575f9050610b73565b5f620f424083610b149190611361565b90505f6002600183610b2691906110e5565b610b3091906113cf565b90505f8290505b80821015610b6c578190506002828385610b5191906113cf565b610b5b91906110e5565b610b6591906113cf565b9150610b37565b8093505050505b919050565b5f5ffd5b5f5ffd5b5f819050919050565b610b9281610b80565b8114610b9c575f5ffd5b50565b5f81359050610bad81610b89565b92915050565b5f60208284031215610bc857610bc7610b78565b5b5f610bd584828501610b9f565b91505092915050565b610be781610b80565b82525050565b5f602082019050610c005f830184610bde565b92915050565b5f73ffffffffffffffffffffffffffffffffffffffff82169050919050565b5f610c2f82610c06565b9050919050565b610c3f81610c25565b82525050565b5f602082019050610c585f830184610c36565b92915050565b5f5ffd5b5f5ffd5b5f5ffd5b5f5f83601f840112610c7f57610c7e610c5e565b5b8235905067ffffffffffffffff811115610c9c57610c9b610c62565b5b602083019150836020820283011115610cb857610cb7610c66565b5b9250929050565b5f5f60208385031215610cd557610cd4610b78565b5b5f83013567ffffffffffffffff811115610cf257610cf1610b7c565b5b610cfe85828601610c6a565b92509250509250929050565b5f8115159050919050565b610d1e81610d0a565b82525050565b5f602082019050610d375f830184610d15565b92915050565b5f81519050919050565b5f82825260208201905092915050565b8281835e5f83830152505050565b5f601f19601f8301169050919050565b5f610d7f82610d3d565b610d898185610d47565b9350610d99818560208601610d57565b610da281610d65565b840191505092915050565b5f6020820190508181035f830152610dc58184610d75565b905092915050565b610dd681610c25565b8114610de0575f5ffd5b50565b5f81359050610df181610dcd565b92915050565b5f60208284031215610e0c57610e0b610b78565b5b5f610e1984828501610de3565b91505092915050565b5f60ff82169050919050565b610e3781610e22565b82525050565b5f602082019050610e505f830184610e2e565b92915050565b5f5f83601f840112610e6b57610e6a610c5e565b5b8235905067ffffffffffffffff811115610e8857610e87610c62565b5b602083019150836020820283011115610ea457610ea3610c66565b5b9250929050565b5f5f60208385031215610ec157610ec0610b78565b5b5f83013567ffffffffffffffff811115610ede57610edd610b7c565b5b610eea85828601610e56565b92509250509250929050565b7f4e487b71000000000000000000000000000000000000000000000000000000005f52603260045260245ffd5b7f515620456e6465642100000000000000000000000000000000000000000000005f82015250565b5f610f57600983610d47565b9150610f6282610f23565b602082019050919050565b5f6020820190508181035f830152610f8481610f4b565b9050919050565b7f4f6e6c79206f76657273656572210000000000000000000000000000000000005f82015250565b5f610fbf600e83610d47565b9150610fca82610f8b565b602082019050919050565b5f6020820190508181035f830152610fec81610fb3565b9050919050565b7f4e487b71000000000000000000000000000000000000000000000000000000005f52602260045260245ffd5b5f600282049050600182168061103757607f821691505b60208210810361104a57611049610ff3565b5b50919050565b7f416c726561647920766f746564206f7220496e656c696769626c6521000000005f82015250565b5f611084601c83610d47565b915061108f82611050565b602082019050919050565b5f6020820190508181035f8301526110b181611078565b9050919050565b7f4e487b71000000000000000000000000000000000000000000000000000000005f52601160045260245ffd5b5f6110ef82610b80565b91506110fa83610b80565b9250828201905080821115611112576111116110b8565b5b92915050565b5f8160011c9050919050565b5f5f8291508390505b600185111561116d57808604811115611149576111486110b8565b5b60018516156111585780820291505b808102905061116685611118565b945061112d565b94509492505050565b5f826111855760019050611240565b81611192575f9050611240565b81600181146111a857600281146111b2576111e1565b6001915050611240565b60ff8411156111c4576111c36110b8565b5b8360020a9150848211156111db576111da6110b8565b5b50611240565b5060208310610133831016604e8410600b84101617156112165782820a905083811115611211576112106110b8565b5b611240565b6112238484846001611124565b9250905081840481111561123a576112396110b8565b5b81810290505b9392505050565b5f61125182610b80565b915061125c83610e22565b92506112897fffffffffffffffffffffffffffffffffffffffffffffffffffffffffffffffff8484611176565b905092915050565b7f43616e64696461746520636f756e74206d69736d6174636821000000000000005f82015250565b5f6112c5601983610d47565b91506112d082611291565b602082019050919050565b5f6020820190508181035f8301526112f2816112b9565b9050919050565b7f457863656564732031303020766f7465732100000000000000000000000000005f82015250565b5f61132d601283610d47565b9150611338826112f9565b602082019050919050565b5f6020820190508181035f83015261135a81611321565b9050919050565b5f61136b82610b80565b915061137683610b80565b925082820261138481610b80565b9150828204841483151761139b5761139a6110b8565b5b5092915050565b7f4e487b71000000000000000000000000000000000000000000000000000000005f52601260045260245ffd5b5f6113d982610b80565b91506113e483610b80565b9250826113f4576113f36113a2565b5b82820490509291505056fea2646970667358221220c4d8f5454969d0c67ded87d16db83d7dc5add7284b448c673a01a0a6b0ed770164736f6c634300081e0033","linkReferences":{}},"methodIdentifiers":{"QVended()":"7e4e924f","QVname()":"82b4128d","candidateNames(uint256)":"8287e42f","candidateVotes(uint256)":"f49e323e","candidates()":"6f0470aa","deadline()":"29dcb0cf","giveVoteAccess(address[])":"61cd30b1","leadingCandidate()":"47a553ad","overseer()":"4ba25656","quadTotal()":"7bf12ac4","quadcandyVotes(uint256)":"15abd27e","sqrtcandyVotes(uint256)":"7e17031c","vote(uint256[])":"ce11f2bb","voteStatus(address)":"895972d4"},"id":16}