{"abi":[{"type":"constructor","inputs":[{"name":"_owner","type":"address","internalType":"address"}],"stateMutability":"nonpayable"},{"type":"function","name":"OPTION_COUNT","inputs":[],"outputs":[{"name":"","type":"uint8","internalType":"uint8"}],"stateMutability":"view"},{"type":"function","name":"allowedVoter","inputs":[{"name":"","type":"address","internalType":"address"}],"outputs":[{"name":"","type":"bool","internalType":"bool"}],"stateMutability":"view"},{"type":"function","name":"castVote","inputs":[{"name":"voter","type":"address","internalType":"address"},{"name":"option","type":"uint8","internalType":"uint8"},{"name":"newVotes","type":"uint256","internalType":"uint256"}],"outputs":[],"stateMutability":"nonpayable"},{"type":"function","name":"controller","inputs":[],"outputs":[{"name":"","type":"address","internalType":"address"}],"stateMutability":"view"},{"type":"function","name":"credits","inputs":[{"name":"","type":"address","internalType":"address"}],"outputs":[{"name":"","type":"uint256","internalType":"uint256"}],"stateMutability":"view"},{"type":"function","name":"decreaseCredits","inputs":[{"name":"user","type":"address","internalType":"address"},{"name":"amount","type":"uint256","internalType":"uint256"}],"outputs":[],"stateMutability":"nonpayable"},{"type":"function","name":"endTime","inputs":[],"outputs":[{"name":"","type":"uint64","internalType":"uint64"}],"stateMutability":"view"},{"type":"function","name":"endVoting","inputs":[],"outputs":[],"stateMutability":"nonpayable"},{"type":"function","name":"increaseCredits","inputs":[{"name":"user","type":"address","internalType":"address"},{"name":"amount","type":"uint256","internalType":"uint256"}],"outputs":[],"stateMutability":"nonpayable"},{"type":"function","name":"optionLabels","inputs":[{"name":"","type":"uint256","internalType":"uint256"}],"outputs":[{"name":"","type":"bytes32","internalType":"bytes32"}],"stateMutability":"view"},{"type":"function","name":"owner","inputs":[],"outputs":[{"name":"","type":"address","internalType":"address"}],"stateMutability":"view"},{"type":"function","name":"results","inputs":[],"outputs":[{"name":"totals","type":"uint256[5]","internalType":"uint256[5]"},{"name":"labels","type":"bytes32[5]","internalType":"bytes32[5]"}],"stateMutability":"view"},{"type":"function","name":"setController","inputs":[{"name":"_controller","type":"address","internalType":"address"}],"outputs":[],"stateMutability":"nonpayable"},{"type":"function","name":"setOptionLabels","inputs":[{"name":"labels","type":"bytes32[5]","internalType":"bytes32[5]"}],"outputs":[],"stateMutability":"nonpayable"},{"type":"function","name":"setVoters","inputs":[{"name":"voters","type":"address[]","internalType":"address[]"},{"name":"allowed","type":"bool","internalType":"bool"}],"outputs":[],"stateMutability":"nonpayable"},{"type":"function","name":"spent","inputs":[{"name":"","type":"address","internalType":"address"}],"outputs":[{"name":"","type":"uint256","internalType":"uint256"}],"stateMutability":"view"},{"type":"function","name":"startTime","inputs":[],"outputs":[{"name":"","type":"uint64","internalType":"uint64"}],"stateMutability":"view"},{"type":"function","name":"startVoting","inputs":[{"name":"_endTime","type":"uint64","internalType":"uint64"}],"outputs":[],"stateMutability":"nonpayable"},{"type":"function","name":"totalVotes","inputs":[{"name":"","type":"uint256","internalType":"uint256"}],"outputs":[{"name":"","type":"uint256","internalType":"uint256"}],"stateMutability":"view"},{"type":"function","name":"transferOwnership","inputs":[{"name":"newOwner","type":"address","internalType":"address"}],"outputs":[],"stateMutability":"nonpayable"},{"type":"function","name":"votesOf","inputs":[{"name":"voter","type":"address","internalType":"address"}],"outputs":[{"name":"","type":"uint256[5]","internalType":"uint256[5]"}],"stateMutability":"view"},{"type":"function","name":"votingActive","inputs":[],"outputs":[{"name":"","type":"bool","internalType":"bool"}],"stateMutability":"view"},{"type":"event","name":"ControllerSet","inputs":[{"name":"controller","type":"address","indexed":true,"internalType":"address"}],"anonymous":false},{"type":"event","name":"CreditsDecreased","inputs":[{"name":"user","type":"address","indexed":true,"internalType":"address"},{"name":"amount","type":"uint256","indexed":false,"internalType":"uint256"}],"anonymous":false},{"type":"event","name":"CreditsIncreased","inputs":[{"name":"user","type":"address","indexed":true,"internalType":"address"},{"name":"amount","type":"uint256","indexed":false,"internalType":"uint256"}],"anonymous":false},{"type":"event","name":"OptionLabelsSet","inputs":[{"name":"labels","type":"bytes32[5]","indexed":false,"internalType":"bytes32[5]"}],"anonymous":false},{"type":"event","name":"VoteCast","inputs":[{"name":"voter","type":"address","indexed":true,"internalType":"address"},{"name":"option","type":"uint8","indexed":true,"internalType":"uint8"},{"name":"oldVotes","type":"uint256","indexed":false,"internalType":"uint256"},{"name":"newVotes","type":"uint256","indexed":false,"internalType":"uint256"},{"name":"oldCost","type":"uint256","indexed":false,"internalType":"uint256"},{"name":"newCost","type":"uint256","indexed":false,"internalType":"uint256"}],"anonymous":false},{"type":"event","name":"VotersSet","inputs":[{"name":"voters","type":"address[]","indexed":false,"internalType":"address[]"},{"name":"allowed","type":"bool","indexed":false,"internalType":"bool"}],"anonymous":false},{"type":"event","name":"VotingEndedEvent","inputs":[{"name":"endTime","type":"uint64","indexed":false,"internalType":"uint64"}],"anonymous":false},{"type":"event","name":"VotingStarted","inputs":[{"name":"startTime","type":"uint64","indexed":false,"internalType":"uint64"},{"name":"endTime","type":"uint64","indexed":false,"internalType":"uint64"}],"anonymous":false},{"type":"error","name":"AmountZero","inputs":[]},{"type":"error","name":"ControllerAlreadySet","inputs":[]},{"type":"error","name":"InsufficientCredits","inputs":[]},{"type":"error","name":"InvalidEndTime","inputs":[]},{"type":"error","name":"InvalidOption","inputs":[]},{"type":"error","name":"NotAllowedVoter","inputs":[]},{"type":"error","name":"NotController","inputs":[]},{"type":"error","name":"NotOwner","inputs":[]},{"type":"error","name":"VotesTooLarge","inputs":[]},{"type":"error","name":"VotingAlreadyActive","inputs":[]},{"type":"error","name":"VotingEnded","inputs":[]},{"type":"error","name":"VotingNotActive","inputs":[]},{"type":"error","name":"ZeroAddress","inputs":[]}],"bytecode":{"object":"0x608060405234801561000f575f5ffd5b5060405161238938038061238983398181016040528101906100319190610139565b5f73ffffffffffffffffffffffffffffffffffffffff168173ffffffffffffffffffffffffffffffffffffffff1603610096576040517fd92e233d00000000000000000000000000000000000000000000000000000000815260040160405180910390fd5b805f5f6101000a81548173ffffffffffffffffffffffffffffffffffffffff021916908373ffffffffffffffffffffffffffffffffffffffff16021790555050610164565b5f5ffd5b5f73ffffffffffffffffffffffffffffffffffffffff82169050919050565b5f610108826100df565b9050919050565b610118816100fe565b8114610122575f5ffd5b50565b5f815190506101338161010f565b92915050565b5f6020828403121561014e5761014d6100db565b5b5f61015b84828501610125565b91505092915050565b612218806101715f395ff3fe608060405234801561000f575f5ffd5b5060043610610140575f3560e01c80638da5cb5b116100b6578063c7feace61161007a578063c7feace61461034f578063ef0fc35c1461036b578063f1d3a42f1461039b578063f2fde38b146103b7578063f77c4791146103d3578063fe5ff468146103f157610140565b80638da5cb5b146102d0578063929ba50b146102ee57806392eefe9b1461030a578063a48bdb7c14610326578063c3403ddf1461034557610140565b80635dd4e963116101085780635dd4e963146101fc57806373da41111461021857806378e979251461024857806379ec5d3a1461026657806384e2d753146102965780638a01a09d146102b457610140565b806319e6e158146101445780631e6a41ea146101745780633197cbb6146101a4578063408e2727146101c257806343bd682d146101e0575b5f5ffd5b61015e600480360381019061015991906119ba565b610421565b60405161016b91906119f4565b60405180910390f35b61018e60048036038101906101899190611a67565b61043a565b60405161019b91906119f4565b60405180910390f35b6101ac61044f565b6040516101b99190611ab4565b60405180910390f35b6101ca610468565b6040516101d79190611ae7565b60405180910390f35b6101fa60048036038101906101f59190611b36565b61047b565b005b61021660048036038101906102119190611b86565b610a61565b005b610232600480360381019061022d9190611a67565b610c2a565b60405161023f9190611ae7565b60405180910390f35b610250610c47565b60405161025d9190611ab4565b60405180910390f35b610280600480360381019061027b9190611a67565b610c61565b60405161028d9190611c69565b60405180910390f35b61029e610ce9565b6040516102ab9190611c91565b60405180910390f35b6102ce60048036038101906102c99190611d35565b610cee565b005b6102d8610eb7565b6040516102e59190611da1565b60405180910390f35b61030860048036038101906103039190611ddb565b610edb565b005b610324600480360381019061031f9190611a67565b610fad565b005b61032e6111a3565b60405161033c929190611eb4565b60405180910390f35b61034d61123d565b005b61036960048036038101906103649190611b86565b61135c565b005b610385600480360381019061038091906119ba565b61159b565b6040516103929190611eeb565b60405180910390f35b6103b560048036038101906103b09190611f2e565b6115b4565b005b6103d160048036038101906103cc9190611a67565b61177a565b005b6103db6118a6565b6040516103e89190611da1565b60405180910390f35b61040b60048036038101906104069190611a67565b6118cb565b60405161041891906119f4565b60405180910390f35b600c8160058110610430575f80fd5b015f915090505481565b600a602052805f5260405f205f915090505481565b60025f9054906101000a900467ffffffffffffffff1681565b600160149054906101000a900460ff1681565b60015f9054906101000a900473ffffffffffffffffffffffffffffffffffffffff1673ffffffffffffffffffffffffffffffffffffffff163373ffffffffffffffffffffffffffffffffffffffff1614610501576040517f23019e6700000000000000000000000000000000000000000000000000000000815260040160405180910390fd5b5f73ffffffffffffffffffffffffffffffffffffffff168373ffffffffffffffffffffffffffffffffffffffff1603610566576040517fd92e233d00000000000000000000000000000000000000000000000000000000815260040160405180910390fd5b60085f8473ffffffffffffffffffffffffffffffffffffffff1673ffffffffffffffffffffffffffffffffffffffff1681526020019081526020015f205f9054906101000a900460ff166105e6576040517f1729954900000000000000000000000000000000000000000000000000000000815260040160405180910390fd5b600560ff168260ff1610610626576040517f2a71953100000000000000000000000000000000000000000000000000000000815260040160405180910390fd5b600160149054906101000a900460ff1661066c576040517f9b8cc47500000000000000000000000000000000000000000000000000000000815260040160405180910390fd5b60025f9054906101000a900467ffffffffffffffff1667ffffffffffffffff164211156106c5576040517f7a19ed0500000000000000000000000000000000000000000000000000000000815260040160405180910390fd5b5f600b5f8573ffffffffffffffffffffffffffffffffffffffff1673ffffffffffffffffffffffffffffffffffffffff1681526020019081526020015f208360ff166005811061071857610717611f59565b5b015490505f81826107299190611fb3565b90505f83846107389190611fb3565b9050818110610873575f828261074e9190611ff4565b90508060095f8973ffffffffffffffffffffffffffffffffffffffff1673ffffffffffffffffffffffffffffffffffffffff1681526020019081526020015f205410156107c7576040517f43fb945300000000000000000000000000000000000000000000000000000000815260040160405180910390fd5b8060095f8973ffffffffffffffffffffffffffffffffffffffff1673ffffffffffffffffffffffffffffffffffffffff1681526020019081526020015f205f8282546108139190611ff4565b9250508190555080600a5f8973ffffffffffffffffffffffffffffffffffffffff1673ffffffffffffffffffffffffffffffffffffffff1681526020019081526020015f205f8282546108669190612027565b925050819055505061092a565b5f81836108809190611ff4565b90508060095f8973ffffffffffffffffffffffffffffffffffffffff1673ffffffffffffffffffffffffffffffffffffffff1681526020019081526020015f205f8282546108ce9190612027565b9250508190555080600a5f8973ffffffffffffffffffffffffffffffffffffffff1673ffffffffffffffffffffffffffffffffffffffff1681526020019081526020015f205f8282546109219190611ff4565b92505081905550505b82841061096f57828461093d9190611ff4565b600c8660ff166005811061095457610953611f59565b5b015f8282546109639190612027565b925050819055506109a9565b838361097b9190611ff4565b600c8660ff166005811061099257610991611f59565b5b015f8282546109a19190611ff4565b925050819055505b83600b5f8873ffffffffffffffffffffffffffffffffffffffff1673ffffffffffffffffffffffffffffffffffffffff1681526020019081526020015f208660ff16600581106109fc576109fb611f59565b5b01819055508460ff168673ffffffffffffffffffffffffffffffffffffffff167f19868b80dc70128e75f7e48de79c41f78ab4cf2fcb83bcb36cee90bea190233985878686604051610a51949392919061205a565b60405180910390a3505050505050565b60015f9054906101000a900473ffffffffffffffffffffffffffffffffffffffff1673ffffffffffffffffffffffffffffffffffffffff163373ffffffffffffffffffffffffffffffffffffffff1614610ae7576040517f23019e6700000000000000000000000000000000000000000000000000000000815260040160405180910390fd5b5f73ffffffffffffffffffffffffffffffffffffffff168273ffffffffffffffffffffffffffffffffffffffff1603610b4c576040517fd92e233d00000000000000000000000000000000000000000000000000000000815260040160405180910390fd5b5f8103610b85576040517fcbca5aa200000000000000000000000000000000000000000000000000000000815260040160405180910390fd5b8060095f8473ffffffffffffffffffffffffffffffffffffffff1673ffffffffffffffffffffffffffffffffffffffff1681526020019081526020015f205f828254610bd19190612027565b925050819055508173ffffffffffffffffffffffffffffffffffffffff167f69b876f57fe71cc49c050779d557e306aa87a7555dd3bb0b4563f3589e8df30e82604051610c1e91906119f4565b60405180910390a25050565b6008602052805f5260405f205f915054906101000a900460ff1681565b600160159054906101000a900467ffffffffffffffff1681565b610c696118e0565b600b5f8373ffffffffffffffffffffffffffffffffffffffff1673ffffffffffffffffffffffffffffffffffffffff1681526020019081526020015f20600580602002604051908101604052809291908260058015610cdd576020028201915b815481526020019060010190808311610cc9575b50505050509050919050565b600581565b60015f9054906101000a900473ffffffffffffffffffffffffffffffffffffffff1673ffffffffffffffffffffffffffffffffffffffff163373ffffffffffffffffffffffffffffffffffffffff1614610d74576040517f23019e6700000000000000000000000000000000000000000000000000000000815260040160405180910390fd5b5f5f90505b83839050811015610e76575f848483818110610d9857610d97611f59565b5b9050602002016020810190610dad9190611a67565b90505f73ffffffffffffffffffffffffffffffffffffffff168173ffffffffffffffffffffffffffffffffffffffff1603610e14576040517fd92e233d00000000000000000000000000000000000000000000000000000000815260040160405180910390fd5b8260085f8373ffffffffffffffffffffffffffffffffffffffff1673ffffffffffffffffffffffffffffffffffffffff1681526020019081526020015f205f6101000a81548160ff021916908315150217905550508080600101915050610d79565b507f6a18f84066c795eb6cc8da58e772f7bd48829e550982953abfc7edd172332b31838383604051610eaa93929190612159565b60405180910390a1505050565b5f5f9054906101000a900473ffffffffffffffffffffffffffffffffffffffff1681565b60015f9054906101000a900473ffffffffffffffffffffffffffffffffffffffff1673ffffffffffffffffffffffffffffffffffffffff163373ffffffffffffffffffffffffffffffffffffffff1614610f61576040517f23019e6700000000000000000000000000000000000000000000000000000000815260040160405180910390fd5b806003906005610f72929190611902565b507fec8f4eda1ec47ee882ac0dde29b84da0361f4c69aeab50a07f46bfeb75ec904381604051610fa291906121a2565b60405180910390a150565b5f5f9054906101000a900473ffffffffffffffffffffffffffffffffffffffff1673ffffffffffffffffffffffffffffffffffffffff163373ffffffffffffffffffffffffffffffffffffffff1614611032576040517f30cd747100000000000000000000000000000000000000000000000000000000815260040160405180910390fd5b5f73ffffffffffffffffffffffffffffffffffffffff168173ffffffffffffffffffffffffffffffffffffffff1603611097576040517fd92e233d00000000000000000000000000000000000000000000000000000000815260040160405180910390fd5b5f73ffffffffffffffffffffffffffffffffffffffff1660015f9054906101000a900473ffffffffffffffffffffffffffffffffffffffff1673ffffffffffffffffffffffffffffffffffffffff161461111d576040517fca231c2300000000000000000000000000000000000000000000000000000000815260040160405180910390fd5b8060015f6101000a81548173ffffffffffffffffffffffffffffffffffffffff021916908373ffffffffffffffffffffffffffffffffffffffff1602179055508073ffffffffffffffffffffffffffffffffffffffff167f79f74fd5964b6943d8a1865abfb7f668c92fa3f32c0a2e3195da7d0946703ad760405160405180910390a250565b6111ab6118e0565b6111b3611942565b600c6003816005806020026040519081016040528092919082600580156111ef576020028201915b8154815260200190600101908083116111db575b505050505091508060058060200260405190810160405280929190826005801561122e576020028201915b81548152602001906001019080831161121a575b50505050509050915091509091565b60015f9054906101000a900473ffffffffffffffffffffffffffffffffffffffff1673ffffffffffffffffffffffffffffffffffffffff163373ffffffffffffffffffffffffffffffffffffffff16146112c3576040517f23019e6700000000000000000000000000000000000000000000000000000000815260040160405180910390fd5b600160149054906101000a900460ff16611309576040517f9b8cc47500000000000000000000000000000000000000000000000000000000815260040160405180910390fd5b5f600160146101000a81548160ff0219169083151502179055507faa0fc6da63ddf338deb088256e58b49f19851306a860aff78ca6ccf9a881e2b6426040516113529190611ab4565b60405180910390a1565b60015f9054906101000a900473ffffffffffffffffffffffffffffffffffffffff1673ffffffffffffffffffffffffffffffffffffffff163373ffffffffffffffffffffffffffffffffffffffff16146113e2576040517f23019e6700000000000000000000000000000000000000000000000000000000815260040160405180910390fd5b5f73ffffffffffffffffffffffffffffffffffffffff168273ffffffffffffffffffffffffffffffffffffffff1603611447576040517fd92e233d00000000000000000000000000000000000000000000000000000000815260040160405180910390fd5b5f8103611480576040517fcbca5aa200000000000000000000000000000000000000000000000000000000815260040160405180910390fd5b5f60095f8473ffffffffffffffffffffffffffffffffffffffff1673ffffffffffffffffffffffffffffffffffffffff1681526020019081526020015f20549050818110156114fb576040517f43fb945300000000000000000000000000000000000000000000000000000000815260040160405180910390fd5b81816115079190611ff4565b60095f8573ffffffffffffffffffffffffffffffffffffffff1673ffffffffffffffffffffffffffffffffffffffff1681526020019081526020015f20819055508273ffffffffffffffffffffffffffffffffffffffff167f11a032478ff28c24e815cea6c671fd4a67b7744740ead88bca703cbeb0c007828360405161158e91906119f4565b60405180910390a2505050565b600381600581106115aa575f80fd5b015f915090505481565b60015f9054906101000a900473ffffffffffffffffffffffffffffffffffffffff1673ffffffffffffffffffffffffffffffffffffffff163373ffffffffffffffffffffffffffffffffffffffff161461163a576040517f23019e6700000000000000000000000000000000000000000000000000000000815260040160405180910390fd5b600160149054906101000a900460ff1615611681576040517fbeff3caf00000000000000000000000000000000000000000000000000000000815260040160405180910390fd5b5f4290508067ffffffffffffffff168267ffffffffffffffff16116116d2576040517f38af65f700000000000000000000000000000000000000000000000000000000815260040160405180910390fd5b60018060146101000a81548160ff02191690831515021790555080600160156101000a81548167ffffffffffffffff021916908367ffffffffffffffff1602179055508160025f6101000a81548167ffffffffffffffff021916908367ffffffffffffffff1602179055507f198e4367750d41d2985978f1aff61d60932c7afcae00f9778273f9fee683604f818360405161176e9291906121bb565b60405180910390a15050565b5f5f9054906101000a900473ffffffffffffffffffffffffffffffffffffffff1673ffffffffffffffffffffffffffffffffffffffff163373ffffffffffffffffffffffffffffffffffffffff16146117ff576040517f30cd747100000000000000000000000000000000000000000000000000000000815260040160405180910390fd5b5f73ffffffffffffffffffffffffffffffffffffffff168173ffffffffffffffffffffffffffffffffffffffff1603611864576040517fd92e233d00000000000000000000000000000000000000000000000000000000815260040160405180910390fd5b805f5f6101000a81548173ffffffffffffffffffffffffffffffffffffffff021916908373ffffffffffffffffffffffffffffffffffffffff16021790555050565b60015f9054906101000a900473ffffffffffffffffffffffffffffffffffffffff1681565b6009602052805f5260405f205f915090505481565b6040518060a00160405280600590602082028036833780820191505090505090565b8260058101928215611931579160200282015b82811115611930578235825591602001919060010190611915565b5b50905061193e9190611964565b5090565b6040518060a00160405280600590602082028036833780820191505090505090565b5b8082111561197b575f815f905550600101611965565b5090565b5f5ffd5b5f5ffd5b5f819050919050565b61199981611987565b81146119a3575f5ffd5b50565b5f813590506119b481611990565b92915050565b5f602082840312156119cf576119ce61197f565b5b5f6119dc848285016119a6565b91505092915050565b6119ee81611987565b82525050565b5f602082019050611a075f8301846119e5565b92915050565b5f73ffffffffffffffffffffffffffffffffffffffff82169050919050565b5f611a3682611a0d565b9050919050565b611a4681611a2c565b8114611a50575f5ffd5b50565b5f81359050611a6181611a3d565b92915050565b5f60208284031215611a7c57611a7b61197f565b5b5f611a8984828501611a53565b91505092915050565b5f67ffffffffffffffff82169050919050565b611aae81611a92565b82525050565b5f602082019050611ac75f830184611aa5565b92915050565b5f8115159050919050565b611ae181611acd565b82525050565b5f602082019050611afa5f830184611ad8565b92915050565b5f60ff82169050919050565b611b1581611b00565b8114611b1f575f5ffd5b50565b5f81359050611b3081611b0c565b92915050565b5f5f5f60608486031215611b4d57611b4c61197f565b5b5f611b5a86828701611a53565b9350506020611b6b86828701611b22565b9250506040611b7c868287016119a6565b9150509250925092565b5f5f60408385031215611b9c57611b9b61197f565b5b5f611ba985828601611a53565b9250506020611bba858286016119a6565b9150509250929050565b5f60059050919050565b5f81905092915050565b5f819050919050565b611bea81611987565b82525050565b5f611bfb8383611be1565b60208301905092915050565b5f602082019050919050565b611c1c81611bc4565b611c268184611bce565b9250611c3182611bd8565b805f5b83811015611c61578151611c488782611bf0565b9650611c5383611c07565b925050600181019050611c34565b505050505050565b5f60a082019050611c7c5f830184611c13565b92915050565b611c8b81611b00565b82525050565b5f602082019050611ca45f830184611c82565b92915050565b5f5ffd5b5f5ffd5b5f5ffd5b5f5f83601f840112611ccb57611cca611caa565b5b8235905067ffffffffffffffff811115611ce857611ce7611cae565b5b602083019150836020820283011115611d0457611d03611cb2565b5b9250929050565b611d1481611acd565b8114611d1e575f5ffd5b50565b5f81359050611d2f81611d0b565b92915050565b5f5f5f60408486031215611d4c57611d4b61197f565b5b5f84013567ffffffffffffffff811115611d6957611d68611983565b5b611d7586828701611cb6565b93509350506020611d8886828701611d21565b9150509250925092565b611d9b81611a2c565b82525050565b5f602082019050611db45f830184611d92565b92915050565b5f81905082602060050282011115611dd557611dd4611cb2565b5b92915050565b5f60a08284031215611df057611def61197f565b5b5f611dfd84828501611dba565b91505092915050565b5f60059050919050565b5f81905092915050565b5f819050919050565b5f819050919050565b611e3581611e23565b82525050565b5f611e468383611e2c565b60208301905092915050565b5f602082019050919050565b611e6781611e06565b611e718184611e10565b9250611e7c82611e1a565b805f5b83811015611eac578151611e938782611e3b565b9650611e9e83611e52565b925050600181019050611e7f565b505050505050565b5f61014082019050611ec85f830185611c13565b611ed560a0830184611e5e565b9392505050565b611ee581611e23565b82525050565b5f602082019050611efe5f830184611edc565b92915050565b611f0d81611a92565b8114611f17575f5ffd5b50565b5f81359050611f2881611f04565b92915050565b5f60208284031215611f4357611f4261197f565b5b5f611f5084828501611f1a565b91505092915050565b7f4e487b71000000000000000000000000000000000000000000000000000000005f52603260045260245ffd5b7f4e487b71000000000000000000000000000000000000000000000000000000005f52601160045260245ffd5b5f611fbd82611987565b9150611fc883611987565b9250828202611fd681611987565b91508282048414831517611fed57611fec611f86565b5b5092915050565b5f611ffe82611987565b915061200983611987565b925082820390508181111561202157612020611f86565b5b92915050565b5f61203182611987565b915061203c83611987565b925082820190508082111561205457612053611f86565b5b92915050565b5f60808201905061206d5f8301876119e5565b61207a60208301866119e5565b61208760408301856119e5565b61209460608301846119e5565b95945050505050565b5f82825260208201905092915050565b5f819050919050565b6120bf81611a2c565b82525050565b5f6120d083836120b6565b60208301905092915050565b5f6120ea6020840184611a53565b905092915050565b5f602082019050919050565b5f612109838561209d565b9350612114826120ad565b805f5b8581101561214c5761212982846120dc565b61213388826120c5565b975061213e836120f2565b925050600181019050612117565b5085925050509392505050565b5f6040820190508181035f8301526121728185876120fe565b90506121816020830184611ad8565b949350505050565b82818337505050565b61219e60a08383612189565b5050565b5f60a0820190506121b55f830184612192565b92915050565b5f6040820190506121ce5f830185611aa5565b6121db6020830184611aa5565b939250505056fea26469706673582212204186f2094ae3f24b56ee0251df4c87f2b96c655e0567ca8a4c052fe5e81fa81764736f6c634300081f0033","linkReferences":{}},"methodIdentifiers":{"OPTION_COUNT()":"84e2d753","allowedVoter(address)":"73da4111","castVote(address,uint8,uint256)":"43bd682d","controller()":"f77c4791","credits(address)":"fe5ff468","decreaseCredits(address,uint256)":"c7feace6","endTime()":"3197cbb6","endVoting()":"c3403ddf","increaseCredits(address,uint256)":"5dd4e963","optionLabels(uint256)":"ef0fc35c","owner()":"8da5cb5b","results()":"a48bdb7c","setController(address)":"92eefe9b","setOptionLabels(bytes32[5])":"929ba50b","setVoters(address[],bool)":"8a01a09d","spent(address)":"1e6a41ea","startTime()":"78e97925","startVoting(uint64)":"f1d3a42f","totalVotes(uint256)":"19e6e158","transferOwnership(address)":"f2fde38b","votesOf(address)":"79ec5d3a","votingActive()":"408e2727"},"id":20}