{"abi":[{"type":"constructor","inputs":[{"name":"coreAddress","type":"address","internalType":"address"}],"stateMutability":"nonpayable"},{"type":"function","name":"castVote","inputs":[{"name":"option","type":"uint8","internalType":"uint8"},{"name":"votes","type":"uint256","internalType":"uint256"}],"outputs":[],"stateMutability":"nonpayable"},{"type":"function","name":"core","inputs":[],"outputs":[{"name":"","type":"address","internalType":"contract QuadraticVoting"}],"stateMutability":"view"},{"type":"function","name":"endVoting","inputs":[],"outputs":[],"stateMutability":"nonpayable"},{"type":"function","name":"grantCredits","inputs":[{"name":"voter","type":"address","internalType":"address"},{"name":"amount","type":"uint256","internalType":"uint256"}],"outputs":[],"stateMutability":"nonpayable"},{"type":"function","name":"owner","inputs":[],"outputs":[{"name":"","type":"address","internalType":"address"}],"stateMutability":"view"},{"type":"function","name":"revokeCredits","inputs":[{"name":"voter","type":"address","internalType":"address"},{"name":"amount","type":"uint256","internalType":"uint256"}],"outputs":[],"stateMutability":"nonpayable"},{"type":"function","name":"setOptionLabels","inputs":[{"name":"labels","type":"bytes32[5]","internalType":"bytes32[5]"}],"outputs":[],"stateMutability":"nonpayable"},{"type":"function","name":"setVoters","inputs":[{"name":"voters","type":"address[]","internalType":"address[]"},{"name":"allowed","type":"bool","internalType":"bool"}],"outputs":[],"stateMutability":"nonpayable"},{"type":"function","name":"startVoting","inputs":[{"name":"endTime","type":"uint64","internalType":"uint64"}],"outputs":[],"stateMutability":"nonpayable"},{"type":"function","name":"transferOwnership","inputs":[{"name":"newOwner","type":"address","internalType":"address"}],"outputs":[],"stateMutability":"nonpayable"},{"type":"error","name":"NotOwner","inputs":[]}],"bytecode":{"object":"0x60a060405234801561000f575f5ffd5b506040516110d13803806110d183398181016040528101906100319190610108565b8073ffffffffffffffffffffffffffffffffffffffff1660808173ffffffffffffffffffffffffffffffffffffffff1681525050335f5f6101000a81548173ffffffffffffffffffffffffffffffffffffffff021916908373ffffffffffffffffffffffffffffffffffffffff16021790555050610133565b5f5ffd5b5f73ffffffffffffffffffffffffffffffffffffffff82169050919050565b5f6100d7826100ae565b9050919050565b6100e7816100cd565b81146100f1575f5ffd5b50565b5f81519050610102816100de565b92915050565b5f6020828403121561011d5761011c6100aa565b5b5f61012a848285016100f4565b91505092915050565b608051610f5561017c5f395f818161023101528181610369015281816104770152818161057901528181610602015281816106ed0152818161080001526109110152610f555ff3fe608060405234801561000f575f5ffd5b506004361061009c575f3560e01c8063f2f4eb2611610064578063f2f4eb261461011c578063f2fde38b1461013a578063f9135be914610156578063fca4486714610172578063ffce86fb1461018e5761009c565b80638a01a09d146100a05780638da5cb5b146100bc578063929ba50b146100da578063c3403ddf146100f6578063f1d3a42f14610100575b5f5ffd5b6100ba60048036038101906100b59190610a39565b6101aa565b005b6100c46102be565b6040516100d19190610ad5565b60405180910390f35b6100f460048036038101906100ef9190610b0f565b6102e2565b005b6100fe6103f0565b005b61011a60048036038101906101159190610b77565b6104f2565b005b610124610600565b6040516101319190610bfd565b60405180910390f35b610154600480360381019061014f9190610c40565b610624565b005b610170600480360381019061016b9190610cd4565b6106eb565b005b61018c60048036038101906101879190610d12565b610779565b005b6101a860048036038101906101a39190610d12565b61088a565b005b5f5f9054906101000a900473ffffffffffffffffffffffffffffffffffffffff1673ffffffffffffffffffffffffffffffffffffffff163373ffffffffffffffffffffffffffffffffffffffff161461022f576040517f30cd747100000000000000000000000000000000000000000000000000000000815260040160405180910390fd5b7f000000000000000000000000000000000000000000000000000000000000000073ffffffffffffffffffffffffffffffffffffffff16638a01a09d8484846040518463ffffffff1660e01b815260040161028c93929190610e1b565b5f604051808303815f87803b1580156102a3575f5ffd5b505af11580156102b5573d5f5f3e3d5ffd5b50505050505050565b5f5f9054906101000a900473ffffffffffffffffffffffffffffffffffffffff1681565b5f5f9054906101000a900473ffffffffffffffffffffffffffffffffffffffff1673ffffffffffffffffffffffffffffffffffffffff163373ffffffffffffffffffffffffffffffffffffffff1614610367576040517f30cd747100000000000000000000000000000000000000000000000000000000815260040160405180910390fd5b7f000000000000000000000000000000000000000000000000000000000000000073ffffffffffffffffffffffffffffffffffffffff1663929ba50b826040518263ffffffff1660e01b81526004016103c09190610e64565b5f604051808303815f87803b1580156103d7575f5ffd5b505af11580156103e9573d5f5f3e3d5ffd5b5050505050565b5f5f9054906101000a900473ffffffffffffffffffffffffffffffffffffffff1673ffffffffffffffffffffffffffffffffffffffff163373ffffffffffffffffffffffffffffffffffffffff1614610475576040517f30cd747100000000000000000000000000000000000000000000000000000000815260040160405180910390fd5b7f000000000000000000000000000000000000000000000000000000000000000073ffffffffffffffffffffffffffffffffffffffff1663c3403ddf6040518163ffffffff1660e01b81526004015f604051808303815f87803b1580156104da575f5ffd5b505af11580156104ec573d5f5f3e3d5ffd5b50505050565b5f5f9054906101000a900473ffffffffffffffffffffffffffffffffffffffff1673ffffffffffffffffffffffffffffffffffffffff163373ffffffffffffffffffffffffffffffffffffffff1614610577576040517f30cd747100000000000000000000000000000000000000000000000000000000815260040160405180910390fd5b7f000000000000000000000000000000000000000000000000000000000000000073ffffffffffffffffffffffffffffffffffffffff1663f1d3a42f826040518263ffffffff1660e01b81526004016105d09190610e8c565b5f604051808303815f87803b1580156105e7575f5ffd5b505af11580156105f9573d5f5f3e3d5ffd5b5050505050565b7f000000000000000000000000000000000000000000000000000000000000000081565b5f5f9054906101000a900473ffffffffffffffffffffffffffffffffffffffff1673ffffffffffffffffffffffffffffffffffffffff163373ffffffffffffffffffffffffffffffffffffffff16146106a9576040517f30cd747100000000000000000000000000000000000000000000000000000000815260040160405180910390fd5b805f5f6101000a81548173ffffffffffffffffffffffffffffffffffffffff021916908373ffffffffffffffffffffffffffffffffffffffff16021790555050565b7f000000000000000000000000000000000000000000000000000000000000000073ffffffffffffffffffffffffffffffffffffffff166343bd682d3384846040518463ffffffff1660e01b815260040161074893929190610ec3565b5f604051808303815f87803b15801561075f575f5ffd5b505af1158015610771573d5f5f3e3d5ffd5b505050505050565b5f5f9054906101000a900473ffffffffffffffffffffffffffffffffffffffff1673ffffffffffffffffffffffffffffffffffffffff163373ffffffffffffffffffffffffffffffffffffffff16146107fe576040517f30cd747100000000000000000000000000000000000000000000000000000000815260040160405180910390fd5b7f000000000000000000000000000000000000000000000000000000000000000073ffffffffffffffffffffffffffffffffffffffff1663c7feace683836040518363ffffffff1660e01b8152600401610859929190610ef8565b5f604051808303815f87803b158015610870575f5ffd5b505af1158015610882573d5f5f3e3d5ffd5b505050505050565b5f5f9054906101000a900473ffffffffffffffffffffffffffffffffffffffff1673ffffffffffffffffffffffffffffffffffffffff163373ffffffffffffffffffffffffffffffffffffffff161461090f576040517f30cd747100000000000000000000000000000000000000000000000000000000815260040160405180910390fd5b7f000000000000000000000000000000000000000000000000000000000000000073ffffffffffffffffffffffffffffffffffffffff16635dd4e96383836040518363ffffffff1660e01b815260040161096a929190610ef8565b5f604051808303815f87803b158015610981575f5ffd5b505af1158015610993573d5f5f3e3d5ffd5b505050505050565b5f5ffd5b5f5ffd5b5f5ffd5b5f5ffd5b5f5ffd5b5f5f83601f8401126109c4576109c36109a3565b5b8235905067ffffffffffffffff8111156109e1576109e06109a7565b5b6020830191508360208202830111156109fd576109fc6109ab565b5b9250929050565b5f8115159050919050565b610a1881610a04565b8114610a22575f5ffd5b50565b5f81359050610a3381610a0f565b92915050565b5f5f5f60408486031215610a5057610a4f61099b565b5b5f84013567ffffffffffffffff811115610a6d57610a6c61099f565b5b610a79868287016109af565b93509350506020610a8c86828701610a25565b9150509250925092565b5f73ffffffffffffffffffffffffffffffffffffffff82169050919050565b5f610abf82610a96565b9050919050565b610acf81610ab5565b82525050565b5f602082019050610ae85f830184610ac6565b92915050565b5f81905082602060050282011115610b0957610b086109ab565b5b92915050565b5f60a08284031215610b2457610b2361099b565b5b5f610b3184828501610aee565b91505092915050565b5f67ffffffffffffffff82169050919050565b610b5681610b3a565b8114610b60575f5ffd5b50565b5f81359050610b7181610b4d565b92915050565b5f60208284031215610b8c57610b8b61099b565b5b5f610b9984828501610b63565b91505092915050565b5f819050919050565b5f610bc5610bc0610bbb84610a96565b610ba2565b610a96565b9050919050565b5f610bd682610bab565b9050919050565b5f610be782610bcc565b9050919050565b610bf781610bdd565b82525050565b5f602082019050610c105f830184610bee565b92915050565b610c1f81610ab5565b8114610c29575f5ffd5b50565b5f81359050610c3a81610c16565b92915050565b5f60208284031215610c5557610c5461099b565b5b5f610c6284828501610c2c565b91505092915050565b5f60ff82169050919050565b610c8081610c6b565b8114610c8a575f5ffd5b50565b5f81359050610c9b81610c77565b92915050565b5f819050919050565b610cb381610ca1565b8114610cbd575f5ffd5b50565b5f81359050610cce81610caa565b92915050565b5f5f60408385031215610cea57610ce961099b565b5b5f610cf785828601610c8d565b9250506020610d0885828601610cc0565b9150509250929050565b5f5f60408385031215610d2857610d2761099b565b5b5f610d3585828601610c2c565b9250506020610d4685828601610cc0565b9150509250929050565b5f82825260208201905092915050565b5f819050919050565b610d7281610ab5565b82525050565b5f610d838383610d69565b60208301905092915050565b5f610d9d6020840184610c2c565b905092915050565b5f602082019050919050565b5f610dbc8385610d50565b9350610dc782610d60565b805f5b85811015610dff57610ddc8284610d8f565b610de68882610d78565b9750610df183610da5565b925050600181019050610dca565b5085925050509392505050565b610e1581610a04565b82525050565b5f6040820190508181035f830152610e34818587610db1565b9050610e436020830184610e0c565b949350505050565b82818337505050565b610e6060a08383610e4b565b5050565b5f60a082019050610e775f830184610e54565b92915050565b610e8681610b3a565b82525050565b5f602082019050610e9f5f830184610e7d565b92915050565b610eae81610c6b565b82525050565b610ebd81610ca1565b82525050565b5f606082019050610ed65f830186610ac6565b610ee36020830185610ea5565b610ef06040830184610eb4565b949350505050565b5f604082019050610f0b5f830185610ac6565b610f186020830184610eb4565b939250505056fea2646970667358221220436eaaaa6e433645ece136fc505e04106470fa0efdd809af9e36add142ba577d64736f6c634300081f0033","linkReferences":{}},"methodIdentifiers":{"castVote(uint8,uint256)":"f9135be9","core()":"f2f4eb26","endVoting()":"c3403ddf","grantCredits(address,uint256)":"ffce86fb","owner()":"8da5cb5b","revokeCredits(address,uint256)":"fca44867","setOptionLabels(bytes32[5])":"929ba50b","setVoters(address[],bool)":"8a01a09d","startVoting(uint64)":"f1d3a42f","transferOwnership(address)":"f2fde38b"},"id":19}